{
  "abi": [
    {
      "type": "constructor",
      "inputs": [
        {
          "name": "hsTokenAddress",
          "type": "address",
          "internalType": "address"
        },
        {
          "name": "baseUri",
          "type": "string",
          "internalType": "string"
        }
      ],
      "stateMutability": "nonpayable"
    },
    {
      "type": "function",
      "name": "approve",
      "inputs": [
        {
          "name": "to",
          "type": "address",
          "internalType": "address"
        },
        {
          "name": "tokenId",
          "type": "uint256",
          "internalType": "uint256"
        }
      ],
      "outputs": [],
      "stateMutability": "nonpayable"
    },
    {
      "type": "function",
      "name": "balanceOf",
      "inputs": [
        {
          "name": "owner",
          "type": "address",
          "internalType": "address"
        }
      ],
      "outputs": [
        {
          "name": "",
          "type": "uint256",
          "internalType": "uint256"
        }
      ],
      "stateMutability": "view"
    },
    {
      "type": "function",
      "name": "buyNftForUser",
      "inputs": [
        {
          "name": "user",
          "type": "address",
          "internalType": "address"
        },
        {
          "name": "index",
          "type": "uint256",
          "internalType": "uint256"
        },
        {
          "name": "price",
          "type": "uint256",
          "internalType": "uint256"
        }
      ],
      "outputs": [],
      "stateMutability": "nonpayable"
    },
    {
      "type": "function",
      "name": "getApproved",
      "inputs": [
        {
          "name": "tokenId",
          "type": "uint256",
          "internalType": "uint256"
        }
      ],
      "outputs": [
        {
          "name": "",
          "type": "address",
          "internalType": "address"
        }
      ],
      "stateMutability": "view"
    },
    {
      "type": "function",
      "name": "getInventoryStatus",
      "inputs": [],
      "outputs": [
        {
          "name": "",
          "type": "bool[20]",
          "internalType": "bool[20]"
        }
      ],
      "stateMutability": "view"
    },
    {
      "type": "function",
      "name": "getNftOwner",
      "inputs": [
        {
          "name": "index",
          "type": "uint256",
          "internalType": "uint256"
        }
      ],
      "outputs": [
        {
          "name": "",
          "type": "address",
          "internalType": "address"
        }
      ],
      "stateMutability": "view"
    },
    {
      "type": "function",
      "name": "i_hsToken",
      "inputs": [],
      "outputs": [
        {
          "name": "",
          "type": "address",
          "internalType": "contract IERC20"
        }
      ],
      "stateMutability": "view"
    },
    {
      "type": "function",
      "name": "isApprovedForAll",
      "inputs": [
        {
          "name": "owner",
          "type": "address",
          "internalType": "address"
        },
        {
          "name": "operator",
          "type": "address",
          "internalType": "address"
        }
      ],
      "outputs": [
        {
          "name": "",
          "type": "bool",
          "internalType": "bool"
        }
      ],
      "stateMutability": "view"
    },
    {
      "type": "function",
      "name": "name",
      "inputs": [],
      "outputs": [
        {
          "name": "",
          "type": "string",
          "internalType": "string"
        }
      ],
      "stateMutability": "view"
    },
    {
      "type": "function",
      "name": "owner",
      "inputs": [],
      "outputs": [
        {
          "name": "",
          "type": "address",
          "internalType": "address"
        }
      ],
      "stateMutability": "view"
    },
    {
      "type": "function",
      "name": "ownerOf",
      "inputs": [
        {
          "name": "tokenId",
          "type": "uint256",
          "internalType": "uint256"
        }
      ],
      "outputs": [
        {
          "name": "",
          "type": "address",
          "internalType": "address"
        }
      ],
      "stateMutability": "view"
    },
    {
      "type": "function",
      "name": "renounceOwnership",
      "inputs": [],
      "outputs": [],
      "stateMutability": "nonpayable"
    },
    {
      "type": "function",
      "name": "s_isSold",
      "inputs": [
        {
          "name": "",
          "type": "uint256",
          "internalType": "uint256"
        }
      ],
      "outputs": [
        {
          "name": "",
          "type": "bool",
          "internalType": "bool"
        }
      ],
      "stateMutability": "view"
    },
    {
      "type": "function",
      "name": "safeTransferFrom",
      "inputs": [
        {
          "name": "from",
          "type": "address",
          "internalType": "address"
        },
        {
          "name": "to",
          "type": "address",
          "internalType": "address"
        },
        {
          "name": "tokenId",
          "type": "uint256",
          "internalType": "uint256"
        }
      ],
      "outputs": [],
      "stateMutability": "nonpayable"
    },
    {
      "type": "function",
      "name": "safeTransferFrom",
      "inputs": [
        {
          "name": "from",
          "type": "address",
          "internalType": "address"
        },
        {
          "name": "to",
          "type": "address",
          "internalType": "address"
        },
        {
          "name": "tokenId",
          "type": "uint256",
          "internalType": "uint256"
        },
        {
          "name": "data",
          "type": "bytes",
          "internalType": "bytes"
        }
      ],
      "outputs": [],
      "stateMutability": "nonpayable"
    },
    {
      "type": "function",
      "name": "setApprovalForAll",
      "inputs": [
        {
          "name": "operator",
          "type": "address",
          "internalType": "address"
        },
        {
          "name": "approved",
          "type": "bool",
          "internalType": "bool"
        }
      ],
      "outputs": [],
      "stateMutability": "nonpayable"
    },
    {
      "type": "function",
      "name": "setBaseURI",
      "inputs": [
        {
          "name": "newBaseUri",
          "type": "string",
          "internalType": "string"
        }
      ],
      "outputs": [],
      "stateMutability": "nonpayable"
    },
    {
      "type": "function",
      "name": "supportsInterface",
      "inputs": [
        {
          "name": "interfaceId",
          "type": "bytes4",
          "internalType": "bytes4"
        }
      ],
      "outputs": [
        {
          "name": "",
          "type": "bool",
          "internalType": "bool"
        }
      ],
      "stateMutability": "view"
    },
    {
      "type": "function",
      "name": "symbol",
      "inputs": [],
      "outputs": [
        {
          "name": "",
          "type": "string",
          "internalType": "string"
        }
      ],
      "stateMutability": "view"
    },
    {
      "type": "function",
      "name": "tokenURI",
      "inputs": [
        {
          "name": "tokenId",
          "type": "uint256",
          "internalType": "uint256"
        }
      ],
      "outputs": [
        {
          "name": "",
          "type": "string",
          "internalType": "string"
        }
      ],
      "stateMutability": "view"
    },
    {
      "type": "function",
      "name": "transferFrom",
      "inputs": [
        {
          "name": "from",
          "type": "address",
          "internalType": "address"
        },
        {
          "name": "to",
          "type": "address",
          "internalType": "address"
        },
        {
          "name": "tokenId",
          "type": "uint256",
          "internalType": "uint256"
        }
      ],
      "outputs": [],
      "stateMutability": "nonpayable"
    },
    {
      "type": "function",
      "name": "transferOwnership",
      "inputs": [
        {
          "name": "newOwner",
          "type": "address",
          "internalType": "address"
        }
      ],
      "outputs": [],
      "stateMutability": "nonpayable"
    },
    {
      "type": "event",
      "name": "Approval",
      "inputs": [
        {
          "name": "owner",
          "type": "address",
          "indexed": true,
          "internalType": "address"
        },
        {
          "name": "approved",
          "type": "address",
          "indexed": true,
          "internalType": "address"
        },
        {
          "name": "tokenId",
          "type": "uint256",
          "indexed": true,
          "internalType": "uint256"
        }
      ],
      "anonymous": false
    },
    {
      "type": "event",
      "name": "ApprovalForAll",
      "inputs": [
        {
          "name": "owner",
          "type": "address",
          "indexed": true,
          "internalType": "address"
        },
        {
          "name": "operator",
          "type": "address",
          "indexed": true,
          "internalType": "address"
        },
        {
          "name": "approved",
          "type": "bool",
          "indexed": false,
          "internalType": "bool"
        }
      ],
      "anonymous": false
    },
    {
      "type": "event",
      "name": "NftPurchased",
      "inputs": [
        {
          "name": "buyer",
          "type": "address",
          "indexed": true,
          "internalType": "address"
        },
        {
          "name": "index",
          "type": "uint256",
          "indexed": true,
          "internalType": "uint256"
        },
        {
          "name": "tokenId",
          "type": "uint256",
          "indexed": false,
          "internalType": "uint256"
        },
        {
          "name": "price",
          "type": "uint256",
          "indexed": false,
          "internalType": "uint256"
        }
      ],
      "anonymous": false
    },
    {
      "type": "event",
      "name": "OwnershipTransferred",
      "inputs": [
        {
          "name": "previousOwner",
          "type": "address",
          "indexed": true,
          "internalType": "address"
        },
        {
          "name": "newOwner",
          "type": "address",
          "indexed": true,
          "internalType": "address"
        }
      ],
      "anonymous": false
    },
    {
      "type": "event",
      "name": "Transfer",
      "inputs": [
        {
          "name": "from",
          "type": "address",
          "indexed": true,
          "internalType": "address"
        },
        {
          "name": "to",
          "type": "address",
          "indexed": true,
          "internalType": "address"
        },
        {
          "name": "tokenId",
          "type": "uint256",
          "indexed": true,
          "internalType": "uint256"
        }
      ],
      "anonymous": false
    },
    {
      "type": "error",
      "name": "ERC721IncorrectOwner",
      "inputs": [
        {
          "name": "sender",
          "type": "address",
          "internalType": "address"
        },
        {
          "name": "tokenId",
          "type": "uint256",
          "internalType": "uint256"
        },
        {
          "name": "owner",
          "type": "address",
          "internalType": "address"
        }
      ]
    },
    {
      "type": "error",
      "name": "ERC721InsufficientApproval",
      "inputs": [
        {
          "name": "operator",
          "type": "address",
          "internalType": "address"
        },
        {
          "name": "tokenId",
          "type": "uint256",
          "internalType": "uint256"
        }
      ]
    },
    {
      "type": "error",
      "name": "ERC721InvalidApprover",
      "inputs": [
        {
          "name": "approver",
          "type": "address",
          "internalType": "address"
        }
      ]
    },
    {
      "type": "error",
      "name": "ERC721InvalidOperator",
      "inputs": [
        {
          "name": "operator",
          "type": "address",
          "internalType": "address"
        }
      ]
    },
    {
      "type": "error",
      "name": "ERC721InvalidOwner",
      "inputs": [
        {
          "name": "owner",
          "type": "address",
          "internalType": "address"
        }
      ]
    },
    {
      "type": "error",
      "name": "ERC721InvalidReceiver",
      "inputs": [
        {
          "name": "receiver",
          "type": "address",
          "internalType": "address"
        }
      ]
    },
    {
      "type": "error",
      "name": "ERC721InvalidSender",
      "inputs": [
        {
          "name": "sender",
          "type": "address",
          "internalType": "address"
        }
      ]
    },
    {
      "type": "error",
      "name": "ERC721NonexistentToken",
      "inputs": [
        {
          "name": "tokenId",
          "type": "uint256",
          "internalType": "uint256"
        }
      ]
    },
    {
      "type": "error",
      "name": "OwnableInvalidOwner",
      "inputs": [
        {
          "name": "owner",
          "type": "address",
          "internalType": "address"
        }
      ]
    },
    {
      "type": "error",
      "name": "OwnableUnauthorizedAccount",
      "inputs": [
        {
          "name": "account",
          "type": "address",
          "internalType": "address"
        }
      ]
    }
  ],
  "bytecode": {
    "object": "0x60a060405234801561000f575f5ffd5b50604051613317380380613317833981810160405281019061003191906103f4565b336040518060400160405280600781526020017f556e6976203344000000000000000000000000000000000000000000000000008152506040518060400160405280600381526020017f5533440000000000000000000000000000000000000000000000000000000000815250815f90816100ac919061066f565b5080600190816100bc919061066f565b5050505f73ffffffffffffffffffffffffffffffffffffffff168173ffffffffffffffffffffffffffffffffffffffff160361012f575f6040517f1e4fbdf7000000000000000000000000000000000000000000000000000000008152600401610126919061074d565b60405180910390fd5b61013e8161018a60201b60201c565b508173ffffffffffffffffffffffffffffffffffffffff1660808173ffffffffffffffffffffffffffffffffffffffff16815250508060079081610182919061066f565b505050610766565b5f60065f9054906101000a900473ffffffffffffffffffffffffffffffffffffffff1690508160065f6101000a81548173ffffffffffffffffffffffffffffffffffffffff021916908373ffffffffffffffffffffffffffffffffffffffff1602179055508173ffffffffffffffffffffffffffffffffffffffff168173ffffffffffffffffffffffffffffffffffffffff167f8be0079c531659141344cd1fd0a4f28419497f9722a3daafe3b4186f6b6457e060405160405180910390a35050565b5f604051905090565b5f5ffd5b5f5ffd5b5f73ffffffffffffffffffffffffffffffffffffffff82169050919050565b5f6102878261025e565b9050919050565b6102978161027d565b81146102a1575f5ffd5b50565b5f815190506102b28161028e565b92915050565b5f5ffd5b5f5ffd5b5f601f19601f8301169050919050565b7f4e487b71000000000000000000000000000000000000000000000000000000005f52604160045260245ffd5b610306826102c0565b810181811067ffffffffffffffff82111715610325576103246102d0565b5b80604052505050565b5f61033761024d565b905061034382826102fd565b919050565b5f67ffffffffffffffff821115610362576103616102d0565b5b61036b826102c0565b9050602081019050919050565b8281835e5f83830152505050565b5f61039861039384610348565b61032e565b9050828152602081018484840111156103b4576103b36102bc565b5b6103bf848285610378565b509392505050565b5f82601f8301126103db576103da6102b8565b5b81516103eb848260208601610386565b91505092915050565b5f5f6040838503121561040a57610409610256565b5b5f610417858286016102a4565b925050602083015167ffffffffffffffff8111156104385761043761025a565b5b610444858286016103c7565b9150509250929050565b5f81519050919050565b7f4e487b71000000000000000000000000000000000000000000000000000000005f52602260045260245ffd5b5f600282049050600182168061049c57607f821691505b6020821081036104af576104ae610458565b5b50919050565b5f819050815f5260205f209050919050565b5f6020601f8301049050919050565b5f82821b905092915050565b5f600883026105117fffffffffffffffffffffffffffffffffffffffffffffffffffffffffffffffff826104d6565b61051b86836104d6565b95508019841693508086168417925050509392505050565b5f819050919050565b5f819050919050565b5f61055f61055a61055584610533565b61053c565b610533565b9050919050565b5f819050919050565b61057883610545565b61058c61058482610566565b8484546104e2565b825550505050565b5f5f905090565b6105a3610594565b6105ae81848461056f565b505050565b5f5b828110156105d4576105c95f82840161059b565b6001810190506105b5565b505050565b601f8211156106275782821115610626576105f3816104b5565b6105fc836104c7565b610605856104c7565b6020861015610612575f90505b808301610621828403826105b3565b505050505b5b505050565b5f82821c905092915050565b5f6106475f198460080261062c565b1980831691505092915050565b5f61065f8383610638565b9150826002028217905092915050565b6106788261044e565b67ffffffffffffffff811115610691576106906102d0565b5b61069b8254610485565b6106a68282856105d9565b5f60209050601f8311600181146106d7575f84156106c5578287015190505b6106cf8582610654565b865550610736565b601f1984166106e5866104b5565b5f5b8281101561070c578489015182556001820191506020850194506020810190506106e7565b868310156107295784890151610725601f891682610638565b8355505b6001600288020188555050505b505050505050565b6107478161027d565b82525050565b5f6020820190506107605f83018461073e565b92915050565b608051612b926107855f395f81816107050152610bfe0152612b925ff3fe608060405234801561000f575f5ffd5b5060043610610140575f3560e01c8063715018a6116100b6578063b2becc211161007a578063b2becc2114610372578063b88d4fde14610390578063c87b56dd146103ac578063e985e9c5146103dc578063f2fde38b1461040c578063f4fe1e2f1461042857610140565b8063715018a6146102e05780638ad2d5a7146102ea5780638da5cb5b1461031a57806395d89b4114610338578063a22cb4651461035657610140565b806342842e0e1161010857806342842e0e146101fa5780634c7b1996146102165780634e1bcdbd1461023457806355f804b3146102645780636352211e1461028057806370a08231146102b057610140565b806301ffc9a71461014457806306fdde0314610174578063081812fc14610192578063095ea7b3146101c257806323b872dd146101de575b5f5ffd5b61015e60048036038101906101599190611d5e565b610444565b60405161016b9190611da3565b60405180910390f35b61017c610525565b6040516101899190611e2c565b60405180910390f35b6101ac60048036038101906101a79190611e7f565b6105b4565b6040516101b99190611ee9565b60405180910390f35b6101dc60048036038101906101d79190611f2c565b6105cf565b005b6101f860048036038101906101f39190611f6a565b6105e5565b005b610214600480360381019061020f9190611f6a565b6106e4565b005b61021e610703565b60405161022b9190612015565b60405180910390f35b61024e60048036038101906102499190611e7f565b610727565b60405161025b9190611da3565b60405180910390f35b61027e6004803603810190610279919061215a565b610744565b005b61029a60048036038101906102959190611e7f565b61075f565b6040516102a79190611ee9565b60405180910390f35b6102ca60048036038101906102c591906121a1565b610770565b6040516102d791906121db565b60405180910390f35b6102e8610826565b005b61030460048036038101906102ff9190611e7f565b610839565b6040516103119190611ee9565b60405180910390f35b610322610875565b60405161032f9190611ee9565b60405180910390f35b61034061089d565b60405161034d9190611e2c565b60405180910390f35b610370600480360381019061036b919061221e565b61092d565b005b61037a610943565b6040516103879190612301565b60405180910390f35b6103aa60048036038101906103a591906123b9565b6109b6565b005b6103c660048036038101906103c19190611e7f565b6109db565b6040516103d39190611e2c565b60405180910390f35b6103f660048036038101906103f19190612439565b610a41565b6040516104039190611da3565b60405180910390f35b610426600480360381019061042191906121a1565b610acf565b005b610442600480360381019061043d9190612477565b610b53565b005b5f7f80ac58cd000000000000000000000000000000000000000000000000000000007bffffffffffffffffffffffffffffffffffffffffffffffffffffffff1916827bffffffffffffffffffffffffffffffffffffffffffffffffffffffff1916148061050e57507f5b5e139f000000000000000000000000000000000000000000000000000000007bffffffffffffffffffffffffffffffffffffffffffffffffffffffff1916827bffffffffffffffffffffffffffffffffffffffffffffffffffffffff1916145b8061051e575061051d82610d61565b5b9050919050565b60605f8054610533906124f4565b80601f016020809104026020016040519081016040528092919081815260200182805461055f906124f4565b80156105aa5780601f10610581576101008083540402835291602001916105aa565b820191905f5260205f20905b81548152906001019060200180831161058d57829003601f168201915b5050505050905090565b5f6105be82610dca565b506105c882610e50565b9050919050565b6105e182826105dc610e89565b610e90565b5050565b5f73ffffffffffffffffffffffffffffffffffffffff168273ffffffffffffffffffffffffffffffffffffffff1603610655575f6040517f64a0ae9200000000000000000000000000000000000000000000000000000000815260040161064c9190611ee9565b60405180910390fd5b5f6106688383610663610e89565b610ea2565b90508373ffffffffffffffffffffffffffffffffffffffff168173ffffffffffffffffffffffffffffffffffffffff16146106de578382826040517f64283d7b0000000000000000000000000000000000000000000000000000000081526004016106d593929190612524565b60405180910390fd5b50505050565b6106fe83838360405180602001604052805f8152506109b6565b505050565b7f000000000000000000000000000000000000000000000000000000000000000081565b6008602052805f5260405f205f915054906101000a900460ff1681565b61074c6110ad565b806007908161075b9190612701565b5050565b5f61076982610dca565b9050919050565b5f5f73ffffffffffffffffffffffffffffffffffffffff168273ffffffffffffffffffffffffffffffffffffffff16036107e1575f6040517f89c62b640000000000000000000000000000000000000000000000000000000081526004016107d89190611ee9565b60405180910390fd5b60035f8373ffffffffffffffffffffffffffffffffffffffff1673ffffffffffffffffffffffffffffffffffffffff1681526020019081526020015f20549050919050565b61082e6110ad565b6108375f611134565b565b5f60085f8381526020019081526020015f205f9054906101000a900460ff16610864575f9050610870565b61086d8261075f565b90505b919050565b5f60065f9054906101000a900473ffffffffffffffffffffffffffffffffffffffff16905090565b6060600180546108ac906124f4565b80601f01602080910402602001604051908101604052809291908181526020018280546108d8906124f4565b80156109235780601f106108fa57610100808354040283529160200191610923565b820191905f5260205f20905b81548152906001019060200180831161090657829003601f168201915b5050505050905090565b61093f610938610e89565b83836111f7565b5050565b61094b611cd5565b610953611cd5565b5f5f90505b60058110156109ae5760085f8281526020019081526020015f205f9054906101000a900460ff16828260148110610992576109916127d0565b5b6020020190151590811515815250508080600101915050610958565b508091505090565b6109c18484846105e5565b6109d56109cc610e89565b858585856113d0565b50505050565b60606109e682610dca565b505f6109f061157c565b90505f815111610a0e5760405180602001604052805f815250610a39565b80610a188461160c565b604051602001610a29929190612837565b6040516020818303038152906040525b915050919050565b5f60055f8473ffffffffffffffffffffffffffffffffffffffff1673ffffffffffffffffffffffffffffffffffffffff1681526020019081526020015f205f8373ffffffffffffffffffffffffffffffffffffffff1673ffffffffffffffffffffffffffffffffffffffff1681526020019081526020015f205f9054906101000a900460ff16905092915050565b610ad76110ad565b5f73ffffffffffffffffffffffffffffffffffffffff168173ffffffffffffffffffffffffffffffffffffffff1603610b47575f6040517f1e4fbdf7000000000000000000000000000000000000000000000000000000008152600401610b3e9190611ee9565b60405180910390fd5b610b5081611134565b50565b610b5b6110ad565b60148210610b9e576040517f08c379a0000000000000000000000000000000000000000000000000000000008152600401610b95906128a4565b60405180910390fd5b60085f8381526020019081526020015f205f9054906101000a900460ff1615610bfc576040517f08c379a0000000000000000000000000000000000000000000000000000000008152600401610bf39061290c565b60405180910390fd5b7f000000000000000000000000000000000000000000000000000000000000000073ffffffffffffffffffffffffffffffffffffffff166323b872dd8430846040518463ffffffff1660e01b8152600401610c599392919061292a565b6020604051808303815f875af1158015610c75573d5f5f3e3d5ffd5b505050506040513d601f19601f82011682018060405250810190610c999190612973565b610cd8576040517f08c379a0000000000000000000000000000000000000000000000000000000008152600401610ccf906129e8565b60405180910390fd5b600160085f8481526020019081526020015f205f6101000a81548160ff021916908315150217905550610d0b83836116d6565b818373ffffffffffffffffffffffffffffffffffffffff167f8dda74522e7fe21bb306fa8b33f1db60c423d24fe006f1274985cb26008574678484604051610d54929190612a06565b60405180910390a3505050565b5f7f01ffc9a7000000000000000000000000000000000000000000000000000000007bffffffffffffffffffffffffffffffffffffffffffffffffffffffff1916827bffffffffffffffffffffffffffffffffffffffffffffffffffffffff1916149050919050565b5f5f610dd5836116f3565b90505f73ffffffffffffffffffffffffffffffffffffffff168173ffffffffffffffffffffffffffffffffffffffff1603610e4757826040517f7e273289000000000000000000000000000000000000000000000000000000008152600401610e3e91906121db565b60405180910390fd5b80915050919050565b5f60045f8381526020019081526020015f205f9054906101000a900473ffffffffffffffffffffffffffffffffffffffff169050919050565b5f33905090565b610e9d838383600161172c565b505050565b5f5f610ead846116f3565b90505f73ffffffffffffffffffffffffffffffffffffffff168373ffffffffffffffffffffffffffffffffffffffff1614610eee57610eed8184866118eb565b5b5f73ffffffffffffffffffffffffffffffffffffffff168173ffffffffffffffffffffffffffffffffffffffff1614610f7957610f2d5f855f5f61172c565b600160035f8373ffffffffffffffffffffffffffffffffffffffff1673ffffffffffffffffffffffffffffffffffffffff1681526020019081526020015f205f82825403925050819055505b5f73ffffffffffffffffffffffffffffffffffffffff168573ffffffffffffffffffffffffffffffffffffffff1614610ff857600160035f8773ffffffffffffffffffffffffffffffffffffffff1673ffffffffffffffffffffffffffffffffffffffff1681526020019081526020015f205f82825401925050819055505b8460025f8681526020019081526020015f205f6101000a81548173ffffffffffffffffffffffffffffffffffffffff021916908373ffffffffffffffffffffffffffffffffffffffff160217905550838573ffffffffffffffffffffffffffffffffffffffff168273ffffffffffffffffffffffffffffffffffffffff167fddf252ad1be2c89b69c2b068fc378daa952ba7f163c4a11628f55a4df523b3ef60405160405180910390a4809150509392505050565b6110b5610e89565b73ffffffffffffffffffffffffffffffffffffffff166110d3610875565b73ffffffffffffffffffffffffffffffffffffffff1614611132576110f6610e89565b6040517f118cdaa70000000000000000000000000000000000000000000000000000000081526004016111299190611ee9565b60405180910390fd5b565b5f60065f9054906101000a900473ffffffffffffffffffffffffffffffffffffffff1690508160065f6101000a81548173ffffffffffffffffffffffffffffffffffffffff021916908373ffffffffffffffffffffffffffffffffffffffff1602179055508173ffffffffffffffffffffffffffffffffffffffff168173ffffffffffffffffffffffffffffffffffffffff167f8be0079c531659141344cd1fd0a4f28419497f9722a3daafe3b4186f6b6457e060405160405180910390a35050565b5f73ffffffffffffffffffffffffffffffffffffffff168373ffffffffffffffffffffffffffffffffffffffff1603611267575f6040517fa9fbf51f00000000000000000000000000000000000000000000000000000000815260040161125e9190611ee9565b60405180910390fd5b5f73ffffffffffffffffffffffffffffffffffffffff168273ffffffffffffffffffffffffffffffffffffffff16036112d757816040517f5b08ba180000000000000000000000000000000000000000000000000000000081526004016112ce9190611ee9565b60405180910390fd5b8060055f8573ffffffffffffffffffffffffffffffffffffffff1673ffffffffffffffffffffffffffffffffffffffff1681526020019081526020015f205f8473ffffffffffffffffffffffffffffffffffffffff1673ffffffffffffffffffffffffffffffffffffffff1681526020019081526020015f205f6101000a81548160ff0219169083151502179055508173ffffffffffffffffffffffffffffffffffffffff168373ffffffffffffffffffffffffffffffffffffffff167f17307eab39ab6107e8899845ad3d59bd9653f200f220920489ca2b5937696c31836040516113c39190611da3565b60405180910390a3505050565b5f8373ffffffffffffffffffffffffffffffffffffffff163b1115611575578273ffffffffffffffffffffffffffffffffffffffff1663150b7a02868685856040518563ffffffff1660e01b815260040161142e9493929190612a7f565b6020604051808303815f875af192505050801561146957506040513d601f19601f820116820180604052508101906114669190612add565b60015b6114ea573d805f8114611497576040519150601f19603f3d011682016040523d82523d5f602084013e61149c565b606091505b505f8151036114e257836040517f64a0ae920000000000000000000000000000000000000000000000000000000081526004016114d99190611ee9565b60405180910390fd5b805160208201fd5b63150b7a0260e01b7bffffffffffffffffffffffffffffffffffffffffffffffffffffffff1916817bffffffffffffffffffffffffffffffffffffffffffffffffffffffff19161461157357836040517f64a0ae9200000000000000000000000000000000000000000000000000000000815260040161156a9190611ee9565b60405180910390fd5b505b5050505050565b60606007805461158b906124f4565b80601f01602080910402602001604051908101604052809291908181526020018280546115b7906124f4565b80156116025780601f106115d957610100808354040283529160200191611602565b820191905f5260205f20905b8154815290600101906020018083116115e557829003601f168201915b5050505050905090565b60605f600161161a846119ae565b0190505f8167ffffffffffffffff81111561163857611637612036565b5b6040519080825280601f01601f19166020018201604052801561166a5781602001600182028036833780820191505090505b5090505f82602083010190505b6001156116cb578080600190039150507f3031323334353637383961626364656600000000000000000000000000000000600a86061a8153600a85816116c0576116bf612b08565b5b0494505f8503611677575b819350505050919050565b6116ef828260405180602001604052805f815250611aff565b5050565b5f60025f8381526020019081526020015f205f9054906101000a900473ffffffffffffffffffffffffffffffffffffffff169050919050565b808061176457505f73ffffffffffffffffffffffffffffffffffffffff168273ffffffffffffffffffffffffffffffffffffffff1614155b15611896575f61177384610dca565b90505f73ffffffffffffffffffffffffffffffffffffffff168373ffffffffffffffffffffffffffffffffffffffff16141580156117dd57508273ffffffffffffffffffffffffffffffffffffffff168173ffffffffffffffffffffffffffffffffffffffff1614155b80156117f057506117ee8184610a41565b155b1561183257826040517fa9fbf51f0000000000000000000000000000000000000000000000000000000081526004016118299190611ee9565b60405180910390fd5b811561189457838573ffffffffffffffffffffffffffffffffffffffff168273ffffffffffffffffffffffffffffffffffffffff167f8c5be1e5ebec7d5bd14f71427d1e84f3dd0314c0f7b2291e5b200ac8c7c3b92560405160405180910390a45b505b8360045f8581526020019081526020015f205f6101000a81548173ffffffffffffffffffffffffffffffffffffffff021916908373ffffffffffffffffffffffffffffffffffffffff16021790555050505050565b6118f6838383611b22565b6119a9575f73ffffffffffffffffffffffffffffffffffffffff168373ffffffffffffffffffffffffffffffffffffffff160361196a57806040517f7e27328900000000000000000000000000000000000000000000000000000000815260040161196191906121db565b60405180910390fd5b81816040517f177e802f0000000000000000000000000000000000000000000000000000000081526004016119a0929190612b35565b60405180910390fd5b505050565b5f5f5f90507a184f03e93ff9f4daa797ed6e38ed64bf6a1f0100000000000000008310611a0a577a184f03e93ff9f4daa797ed6e38ed64bf6a1f0100000000000000008381611a00576119ff612b08565b5b0492506040810190505b6d04ee2d6d415b85acef81000000008310611a47576d04ee2d6d415b85acef81000000008381611a3d57611a3c612b08565b5b0492506020810190505b662386f26fc100008310611a7657662386f26fc100008381611a6c57611a6b612b08565b5b0492506010810190505b6305f5e1008310611a9f576305f5e1008381611a9557611a94612b08565b5b0492506008810190505b6127108310611ac4576127108381611aba57611ab9612b08565b5b0492506004810190505b60648310611ae75760648381611add57611adc612b08565b5b0492506002810190505b600a8310611af6576001810190505b80915050919050565b611b098383611be2565b611b1d611b14610e89565b5f8585856113d0565b505050565b5f5f73ffffffffffffffffffffffffffffffffffffffff168373ffffffffffffffffffffffffffffffffffffffff1614158015611bd957508273ffffffffffffffffffffffffffffffffffffffff168473ffffffffffffffffffffffffffffffffffffffff161480611b9a5750611b998484610a41565b5b80611bd857508273ffffffffffffffffffffffffffffffffffffffff16611bc083610e50565b73ffffffffffffffffffffffffffffffffffffffff16145b5b90509392505050565b5f73ffffffffffffffffffffffffffffffffffffffff168273ffffffffffffffffffffffffffffffffffffffff1603611c52575f6040517f64a0ae92000000000000000000000000000000000000000000000000000000008152600401611c499190611ee9565b60405180910390fd5b5f611c5e83835f610ea2565b90505f73ffffffffffffffffffffffffffffffffffffffff168173ffffffffffffffffffffffffffffffffffffffff1614611cd0575f6040517f73c6ac6e000000000000000000000000000000000000000000000000000000008152600401611cc79190611ee9565b60405180910390fd5b505050565b604051806102800160405280601490602082028036833780820191505090505090565b5f604051905090565b5f5ffd5b5f5ffd5b5f7fffffffff0000000000000000000000000000000000000000000000000000000082169050919050565b611d3d81611d09565b8114611d47575f5ffd5b50565b5f81359050611d5881611d34565b92915050565b5f60208284031215611d7357611d72611d01565b5b5f611d8084828501611d4a565b91505092915050565b5f8115159050919050565b611d9d81611d89565b82525050565b5f602082019050611db65f830184611d94565b92915050565b5f81519050919050565b5f82825260208201905092915050565b8281835e5f83830152505050565b5f601f19601f8301169050919050565b5f611dfe82611dbc565b611e088185611dc6565b9350611e18818560208601611dd6565b611e2181611de4565b840191505092915050565b5f6020820190508181035f830152611e448184611df4565b905092915050565b5f819050919050565b611e5e81611e4c565b8114611e68575f5ffd5b50565b5f81359050611e7981611e55565b92915050565b5f60208284031215611e9457611e93611d01565b5b5f611ea184828501611e6b565b91505092915050565b5f73ffffffffffffffffffffffffffffffffffffffff82169050919050565b5f611ed382611eaa565b9050919050565b611ee381611ec9565b82525050565b5f602082019050611efc5f830184611eda565b92915050565b611f0b81611ec9565b8114611f15575f5ffd5b50565b5f81359050611f2681611f02565b92915050565b5f5f60408385031215611f4257611f41611d01565b5b5f611f4f85828601611f18565b9250506020611f6085828601611e6b565b9150509250929050565b5f5f5f60608486031215611f8157611f80611d01565b5b5f611f8e86828701611f18565b9350506020611f9f86828701611f18565b9250506040611fb086828701611e6b565b9150509250925092565b5f819050919050565b5f611fdd611fd8611fd384611eaa565b611fba565b611eaa565b9050919050565b5f611fee82611fc3565b9050919050565b5f611fff82611fe4565b9050919050565b61200f81611ff5565b82525050565b5f6020820190506120285f830184612006565b92915050565b5f5ffd5b5f5ffd5b7f4e487b71000000000000000000000000000000000000000000000000000000005f52604160045260245ffd5b61206c82611de4565b810181811067ffffffffffffffff8211171561208b5761208a612036565b5b80604052505050565b5f61209d611cf8565b90506120a98282612063565b919050565b5f67ffffffffffffffff8211156120c8576120c7612036565b5b6120d182611de4565b9050602081019050919050565b828183375f83830152505050565b5f6120fe6120f9846120ae565b612094565b90508281526020810184848401111561211a57612119612032565b5b6121258482856120de565b509392505050565b5f82601f8301126121415761214061202e565b5b81356121518482602086016120ec565b91505092915050565b5f6020828403121561216f5761216e611d01565b5b5f82013567ffffffffffffffff81111561218c5761218b611d05565b5b6121988482850161212d565b91505092915050565b5f602082840312156121b6576121b5611d01565b5b5f6121c384828501611f18565b91505092915050565b6121d581611e4c565b82525050565b5f6020820190506121ee5f8301846121cc565b92915050565b6121fd81611d89565b8114612207575f5ffd5b50565b5f81359050612218816121f4565b92915050565b5f5f6040838503121561223457612233611d01565b5b5f61224185828601611f18565b92505060206122528582860161220a565b9150509250929050565b5f60149050919050565b5f81905092915050565b5f819050919050565b61228281611d89565b82525050565b5f6122938383612279565b60208301905092915050565b5f602082019050919050565b6122b48161225c565b6122be8184612266565b92506122c982612270565b805f5b838110156122f95781516122e08782612288565b96506122eb8361229f565b9250506001810190506122cc565b505050505050565b5f610280820190506123155f8301846122ab565b92915050565b5f67ffffffffffffffff82111561233557612334612036565b5b61233e82611de4565b9050602081019050919050565b5f61235d6123588461231b565b612094565b90508281526020810184848401111561237957612378612032565b5b6123848482856120de565b509392505050565b5f82601f8301126123a05761239f61202e565b5b81356123b084826020860161234b565b91505092915050565b5f5f5f5f608085870312156123d1576123d0611d01565b5b5f6123de87828801611f18565b94505060206123ef87828801611f18565b935050604061240087828801611e6b565b925050606085013567ffffffffffffffff81111561242157612420611d05565b5b61242d8782880161238c565b91505092959194509250565b5f5f6040838503121561244f5761244e611d01565b5b5f61245c85828601611f18565b925050602061246d85828601611f18565b9150509250929050565b5f5f5f6060848603121561248e5761248d611d01565b5b5f61249b86828701611f18565b93505060206124ac86828701611e6b565b92505060406124bd86828701611e6b565b9150509250925092565b7f4e487b71000000000000000000000000000000000000000000000000000000005f52602260045260245ffd5b5f600282049050600182168061250b57607f821691505b60208210810361251e5761251d6124c7565b5b50919050565b5f6060820190506125375f830186611eda565b61254460208301856121cc565b6125516040830184611eda565b949350505050565b5f819050815f5260205f209050919050565b5f6020601f8301049050919050565b5f82821b905092915050565b5f600883026125b57fffffffffffffffffffffffffffffffffffffffffffffffffffffffffffffffff8261257a565b6125bf868361257a565b95508019841693508086168417925050509392505050565b5f6125f16125ec6125e784611e4c565b611fba565b611e4c565b9050919050565b5f819050919050565b61260a836125d7565b61261e612616826125f8565b848454612586565b825550505050565b5f5f905090565b612635612626565b612640818484612601565b505050565b5f5b828110156126665761265b5f82840161262d565b600181019050612647565b505050565b601f8211156126b957828211156126b85761268581612559565b61268e8361256b565b6126978561256b565b60208610156126a4575f90505b8083016126b382840382612645565b505050505b5b505050565b5f82821c905092915050565b5f6126d95f19846008026126be565b1980831691505092915050565b5f6126f183836126ca565b9150826002028217905092915050565b61270a82611dbc565b67ffffffffffffffff81111561272357612722612036565b5b61272d82546124f4565b61273882828561266b565b5f60209050601f831160018114612769575f8415612757578287015190505b61276185826126e6565b8655506127c8565b601f19841661277786612559565b5f5b8281101561279e57848901518255600182019150602085019450602081019050612779565b868310156127bb57848901516127b7601f8916826126ca565b8355505b6001600288020188555050505b505050505050565b7f4e487b71000000000000000000000000000000000000000000000000000000005f52603260045260245ffd5b5f81905092915050565b5f61281182611dbc565b61281b81856127fd565b935061282b818560208601611dd6565b80840191505092915050565b5f6128428285612807565b915061284e8284612807565b91508190509392505050565b7f4f7574206f662072616e676500000000000000000000000000000000000000005f82015250565b5f61288e600c83611dc6565b91506128998261285a565b602082019050919050565b5f6020820190508181035f8301526128bb81612882565b9050919050565b7f416c726561647920736f6c6400000000000000000000000000000000000000005f82015250565b5f6128f6600c83611dc6565b9150612901826128c2565b602082019050919050565b5f6020820190508181035f830152612923816128ea565b9050919050565b5f60608201905061293d5f830186611eda565b61294a6020830185611eda565b61295760408301846121cc565b949350505050565b5f8151905061296d816121f4565b92915050565b5f6020828403121561298857612987611d01565b5b5f6129958482850161295f565b91505092915050565b7f546f6b656e207472616e73666572206661696c656400000000000000000000005f82015250565b5f6129d2601583611dc6565b91506129dd8261299e565b602082019050919050565b5f6020820190508181035f8301526129ff816129c6565b9050919050565b5f604082019050612a195f8301856121cc565b612a2660208301846121cc565b9392505050565b5f81519050919050565b5f82825260208201905092915050565b5f612a5182612a2d565b612a5b8185612a37565b9350612a6b818560208601611dd6565b612a7481611de4565b840191505092915050565b5f608082019050612a925f830187611eda565b612a9f6020830186611eda565b612aac60408301856121cc565b8181036060830152612abe8184612a47565b905095945050505050565b5f81519050612ad781611d34565b92915050565b5f60208284031215612af257612af1611d01565b5b5f612aff84828501612ac9565b91505092915050565b7f4e487b71000000000000000000000000000000000000000000000000000000005f52601260045260245ffd5b5f604082019050612b485f830185611eda565b612b5560208301846121cc565b939250505056fea2646970667358221220c54530ea57677f2aaa0e584c74061e45b893367b45527edd0ab5a4df6452966b64736f6c63430008210033",
    "linkReferences": {}
  },
  "methodIdentifiers": {
    "approve(address,uint256)": "095ea7b3",
    "balanceOf(address)": "70a08231",
    "buyNftForUser(address,uint256,uint256)": "f4fe1e2f",
    "getApproved(uint256)": "081812fc",
    "getInventoryStatus()": "b2becc21",
    "getNftOwner(uint256)": "8ad2d5a7",
    "i_hsToken()": "4c7b1996",
    "isApprovedForAll(address,address)": "e985e9c5",
    "name()": "06fdde03",
    "owner()": "8da5cb5b",
    "ownerOf(uint256)": "6352211e",
    "renounceOwnership()": "715018a6",
    "s_isSold(uint256)": "4e1bcdbd",
    "safeTransferFrom(address,address,uint256)": "42842e0e",
    "safeTransferFrom(address,address,uint256,bytes)": "b88d4fde",
    "setApprovalForAll(address,bool)": "a22cb465",
    "setBaseURI(string)": "55f804b3",
    "supportsInterface(bytes4)": "01ffc9a7",
    "symbol()": "95d89b41",
    "tokenURI(uint256)": "c87b56dd",
    "transferFrom(address,address,uint256)": "23b872dd",
    "transferOwnership(address)": "f2fde38b"
  },
  "id": 40
}