{
  "abi": [
    {
      "type": "constructor",
      "inputs": [
        {
          "name": "hsTokenAddress",
          "type": "address",
          "internalType": "address"
        },
        {
          "name": "baseUri",
          "type": "string",
          "internalType": "string"
        }
      ],
      "stateMutability": "nonpayable"
    },
    {
      "type": "function",
      "name": "approve",
      "inputs": [
        {
          "name": "to",
          "type": "address",
          "internalType": "address"
        },
        {
          "name": "tokenId",
          "type": "uint256",
          "internalType": "uint256"
        }
      ],
      "outputs": [],
      "stateMutability": "nonpayable"
    },
    {
      "type": "function",
      "name": "balanceOf",
      "inputs": [
        {
          "name": "owner",
          "type": "address",
          "internalType": "address"
        }
      ],
      "outputs": [
        {
          "name": "",
          "type": "uint256",
          "internalType": "uint256"
        }
      ],
      "stateMutability": "view"
    },
    {
      "type": "function",
      "name": "buyNftForUser",
      "inputs": [
        {
          "name": "user",
          "type": "address",
          "internalType": "address"
        },
        {
          "name": "index",
          "type": "uint256",
          "internalType": "uint256"
        },
        {
          "name": "price",
          "type": "uint256",
          "internalType": "uint256"
        }
      ],
      "outputs": [],
      "stateMutability": "nonpayable"
    },
    {
      "type": "function",
      "name": "getApproved",
      "inputs": [
        {
          "name": "tokenId",
          "type": "uint256",
          "internalType": "uint256"
        }
      ],
      "outputs": [
        {
          "name": "",
          "type": "address",
          "internalType": "address"
        }
      ],
      "stateMutability": "view"
    },
    {
      "type": "function",
      "name": "getInventoryStatus",
      "inputs": [],
      "outputs": [
        {
          "name": "",
          "type": "bool[20]",
          "internalType": "bool[20]"
        }
      ],
      "stateMutability": "view"
    },
    {
      "type": "function",
      "name": "getNftOwner",
      "inputs": [
        {
          "name": "index",
          "type": "uint256",
          "internalType": "uint256"
        }
      ],
      "outputs": [
        {
          "name": "",
          "type": "address",
          "internalType": "address"
        }
      ],
      "stateMutability": "view"
    },
    {
      "type": "function",
      "name": "i_hsToken",
      "inputs": [],
      "outputs": [
        {
          "name": "",
          "type": "address",
          "internalType": "contract IERC20"
        }
      ],
      "stateMutability": "view"
    },
    {
      "type": "function",
      "name": "isApprovedForAll",
      "inputs": [
        {
          "name": "owner",
          "type": "address",
          "internalType": "address"
        },
        {
          "name": "operator",
          "type": "address",
          "internalType": "address"
        }
      ],
      "outputs": [
        {
          "name": "",
          "type": "bool",
          "internalType": "bool"
        }
      ],
      "stateMutability": "view"
    },
    {
      "type": "function",
      "name": "name",
      "inputs": [],
      "outputs": [
        {
          "name": "",
          "type": "string",
          "internalType": "string"
        }
      ],
      "stateMutability": "view"
    },
    {
      "type": "function",
      "name": "owner",
      "inputs": [],
      "outputs": [
        {
          "name": "",
          "type": "address",
          "internalType": "address"
        }
      ],
      "stateMutability": "view"
    },
    {
      "type": "function",
      "name": "ownerOf",
      "inputs": [
        {
          "name": "tokenId",
          "type": "uint256",
          "internalType": "uint256"
        }
      ],
      "outputs": [
        {
          "name": "",
          "type": "address",
          "internalType": "address"
        }
      ],
      "stateMutability": "view"
    },
    {
      "type": "function",
      "name": "renounceOwnership",
      "inputs": [],
      "outputs": [],
      "stateMutability": "nonpayable"
    },
    {
      "type": "function",
      "name": "s_isSold",
      "inputs": [
        {
          "name": "",
          "type": "uint256",
          "internalType": "uint256"
        }
      ],
      "outputs": [
        {
          "name": "",
          "type": "bool",
          "internalType": "bool"
        }
      ],
      "stateMutability": "view"
    },
    {
      "type": "function",
      "name": "safeTransferFrom",
      "inputs": [
        {
          "name": "from",
          "type": "address",
          "internalType": "address"
        },
        {
          "name": "to",
          "type": "address",
          "internalType": "address"
        },
        {
          "name": "tokenId",
          "type": "uint256",
          "internalType": "uint256"
        }
      ],
      "outputs": [],
      "stateMutability": "nonpayable"
    },
    {
      "type": "function",
      "name": "safeTransferFrom",
      "inputs": [
        {
          "name": "from",
          "type": "address",
          "internalType": "address"
        },
        {
          "name": "to",
          "type": "address",
          "internalType": "address"
        },
        {
          "name": "tokenId",
          "type": "uint256",
          "internalType": "uint256"
        },
        {
          "name": "data",
          "type": "bytes",
          "internalType": "bytes"
        }
      ],
      "outputs": [],
      "stateMutability": "nonpayable"
    },
    {
      "type": "function",
      "name": "setApprovalForAll",
      "inputs": [
        {
          "name": "operator",
          "type": "address",
          "internalType": "address"
        },
        {
          "name": "approved",
          "type": "bool",
          "internalType": "bool"
        }
      ],
      "outputs": [],
      "stateMutability": "nonpayable"
    },
    {
      "type": "function",
      "name": "supportsInterface",
      "inputs": [
        {
          "name": "interfaceId",
          "type": "bytes4",
          "internalType": "bytes4"
        }
      ],
      "outputs": [
        {
          "name": "",
          "type": "bool",
          "internalType": "bool"
        }
      ],
      "stateMutability": "view"
    },
    {
      "type": "function",
      "name": "symbol",
      "inputs": [],
      "outputs": [
        {
          "name": "",
          "type": "string",
          "internalType": "string"
        }
      ],
      "stateMutability": "view"
    },
    {
      "type": "function",
      "name": "tokenURI",
      "inputs": [
        {
          "name": "tokenId",
          "type": "uint256",
          "internalType": "uint256"
        }
      ],
      "outputs": [
        {
          "name": "",
          "type": "string",
          "internalType": "string"
        }
      ],
      "stateMutability": "view"
    },
    {
      "type": "function",
      "name": "transferFrom",
      "inputs": [
        {
          "name": "from",
          "type": "address",
          "internalType": "address"
        },
        {
          "name": "to",
          "type": "address",
          "internalType": "address"
        },
        {
          "name": "tokenId",
          "type": "uint256",
          "internalType": "uint256"
        }
      ],
      "outputs": [],
      "stateMutability": "nonpayable"
    },
    {
      "type": "function",
      "name": "transferOwnership",
      "inputs": [
        {
          "name": "newOwner",
          "type": "address",
          "internalType": "address"
        }
      ],
      "outputs": [],
      "stateMutability": "nonpayable"
    },
    {
      "type": "event",
      "name": "Approval",
      "inputs": [
        {
          "name": "owner",
          "type": "address",
          "indexed": true,
          "internalType": "address"
        },
        {
          "name": "approved",
          "type": "address",
          "indexed": true,
          "internalType": "address"
        },
        {
          "name": "tokenId",
          "type": "uint256",
          "indexed": true,
          "internalType": "uint256"
        }
      ],
      "anonymous": false
    },
    {
      "type": "event",
      "name": "ApprovalForAll",
      "inputs": [
        {
          "name": "owner",
          "type": "address",
          "indexed": true,
          "internalType": "address"
        },
        {
          "name": "operator",
          "type": "address",
          "indexed": true,
          "internalType": "address"
        },
        {
          "name": "approved",
          "type": "bool",
          "indexed": false,
          "internalType": "bool"
        }
      ],
      "anonymous": false
    },
    {
      "type": "event",
      "name": "NftPurchased",
      "inputs": [
        {
          "name": "buyer",
          "type": "address",
          "indexed": true,
          "internalType": "address"
        },
        {
          "name": "index",
          "type": "uint256",
          "indexed": true,
          "internalType": "uint256"
        },
        {
          "name": "tokenId",
          "type": "uint256",
          "indexed": false,
          "internalType": "uint256"
        },
        {
          "name": "price",
          "type": "uint256",
          "indexed": false,
          "internalType": "uint256"
        }
      ],
      "anonymous": false
    },
    {
      "type": "event",
      "name": "OwnershipTransferred",
      "inputs": [
        {
          "name": "previousOwner",
          "type": "address",
          "indexed": true,
          "internalType": "address"
        },
        {
          "name": "newOwner",
          "type": "address",
          "indexed": true,
          "internalType": "address"
        }
      ],
      "anonymous": false
    },
    {
      "type": "event",
      "name": "Transfer",
      "inputs": [
        {
          "name": "from",
          "type": "address",
          "indexed": true,
          "internalType": "address"
        },
        {
          "name": "to",
          "type": "address",
          "indexed": true,
          "internalType": "address"
        },
        {
          "name": "tokenId",
          "type": "uint256",
          "indexed": true,
          "internalType": "uint256"
        }
      ],
      "anonymous": false
    },
    {
      "type": "error",
      "name": "ERC721IncorrectOwner",
      "inputs": [
        {
          "name": "sender",
          "type": "address",
          "internalType": "address"
        },
        {
          "name": "tokenId",
          "type": "uint256",
          "internalType": "uint256"
        },
        {
          "name": "owner",
          "type": "address",
          "internalType": "address"
        }
      ]
    },
    {
      "type": "error",
      "name": "ERC721InsufficientApproval",
      "inputs": [
        {
          "name": "operator",
          "type": "address",
          "internalType": "address"
        },
        {
          "name": "tokenId",
          "type": "uint256",
          "internalType": "uint256"
        }
      ]
    },
    {
      "type": "error",
      "name": "ERC721InvalidApprover",
      "inputs": [
        {
          "name": "approver",
          "type": "address",
          "internalType": "address"
        }
      ]
    },
    {
      "type": "error",
      "name": "ERC721InvalidOperator",
      "inputs": [
        {
          "name": "operator",
          "type": "address",
          "internalType": "address"
        }
      ]
    },
    {
      "type": "error",
      "name": "ERC721InvalidOwner",
      "inputs": [
        {
          "name": "owner",
          "type": "address",
          "internalType": "address"
        }
      ]
    },
    {
      "type": "error",
      "name": "ERC721InvalidReceiver",
      "inputs": [
        {
          "name": "receiver",
          "type": "address",
          "internalType": "address"
        }
      ]
    },
    {
      "type": "error",
      "name": "ERC721InvalidSender",
      "inputs": [
        {
          "name": "sender",
          "type": "address",
          "internalType": "address"
        }
      ]
    },
    {
      "type": "error",
      "name": "ERC721NonexistentToken",
      "inputs": [
        {
          "name": "tokenId",
          "type": "uint256",
          "internalType": "uint256"
        }
      ]
    },
    {
      "type": "error",
      "name": "OwnableInvalidOwner",
      "inputs": [
        {
          "name": "owner",
          "type": "address",
          "internalType": "address"
        }
      ]
    },
    {
      "type": "error",
      "name": "OwnableUnauthorizedAccount",
      "inputs": [
        {
          "name": "account",
          "type": "address",
          "internalType": "address"
        }
      ]
    }
  ],
  "bytecode": {
    "object": "0x60a060405234801561000f575f5ffd5b50604051612f79380380612f79833981810160405281019061003191906103f4565b336040518060400160405280600781526020017f556e6976203344000000000000000000000000000000000000000000000000008152506040518060400160405280600381526020017f5533440000000000000000000000000000000000000000000000000000000000815250815f90816100ac919061066f565b5080600190816100bc919061066f565b5050505f73ffffffffffffffffffffffffffffffffffffffff168173ffffffffffffffffffffffffffffffffffffffff160361012f575f6040517f1e4fbdf7000000000000000000000000000000000000000000000000000000008152600401610126919061074d565b60405180910390fd5b61013e8161018a60201b60201c565b508173ffffffffffffffffffffffffffffffffffffffff1660808173ffffffffffffffffffffffffffffffffffffffff16815250508060079081610182919061066f565b505050610766565b5f60065f9054906101000a900473ffffffffffffffffffffffffffffffffffffffff1690508160065f6101000a81548173ffffffffffffffffffffffffffffffffffffffff021916908373ffffffffffffffffffffffffffffffffffffffff1602179055508173ffffffffffffffffffffffffffffffffffffffff168173ffffffffffffffffffffffffffffffffffffffff167f8be0079c531659141344cd1fd0a4f28419497f9722a3daafe3b4186f6b6457e060405160405180910390a35050565b5f604051905090565b5f5ffd5b5f5ffd5b5f73ffffffffffffffffffffffffffffffffffffffff82169050919050565b5f6102878261025e565b9050919050565b6102978161027d565b81146102a1575f5ffd5b50565b5f815190506102b28161028e565b92915050565b5f5ffd5b5f5ffd5b5f601f19601f8301169050919050565b7f4e487b71000000000000000000000000000000000000000000000000000000005f52604160045260245ffd5b610306826102c0565b810181811067ffffffffffffffff82111715610325576103246102d0565b5b80604052505050565b5f61033761024d565b905061034382826102fd565b919050565b5f67ffffffffffffffff821115610362576103616102d0565b5b61036b826102c0565b9050602081019050919050565b8281835e5f83830152505050565b5f61039861039384610348565b61032e565b9050828152602081018484840111156103b4576103b36102bc565b5b6103bf848285610378565b509392505050565b5f82601f8301126103db576103da6102b8565b5b81516103eb848260208601610386565b91505092915050565b5f5f6040838503121561040a57610409610256565b5b5f610417858286016102a4565b925050602083015167ffffffffffffffff8111156104385761043761025a565b5b610444858286016103c7565b9150509250929050565b5f81519050919050565b7f4e487b71000000000000000000000000000000000000000000000000000000005f52602260045260245ffd5b5f600282049050600182168061049c57607f821691505b6020821081036104af576104ae610458565b5b50919050565b5f819050815f5260205f209050919050565b5f6020601f8301049050919050565b5f82821b905092915050565b5f600883026105117fffffffffffffffffffffffffffffffffffffffffffffffffffffffffffffffff826104d6565b61051b86836104d6565b95508019841693508086168417925050509392505050565b5f819050919050565b5f819050919050565b5f61055f61055a61055584610533565b61053c565b610533565b9050919050565b5f819050919050565b61057883610545565b61058c61058482610566565b8484546104e2565b825550505050565b5f5f905090565b6105a3610594565b6105ae81848461056f565b505050565b5f5b828110156105d4576105c95f82840161059b565b6001810190506105b5565b505050565b601f8211156106275782821115610626576105f3816104b5565b6105fc836104c7565b610605856104c7565b6020861015610612575f90505b808301610621828403826105b3565b505050505b5b505050565b5f82821c905092915050565b5f6106475f198460080261062c565b1980831691505092915050565b5f61065f8383610638565b9150826002028217905092915050565b6106788261044e565b67ffffffffffffffff811115610691576106906102d0565b5b61069b8254610485565b6106a68282856105d9565b5f60209050601f8311600181146106d7575f84156106c5578287015190505b6106cf8582610654565b865550610736565b601f1984166106e5866104b5565b5f5b8281101561070c578489015182556001820191506020850194506020810190506106e7565b868310156107295784890151610725601f891682610638565b8355505b6001600288020188555050505b505050505050565b6107478161027d565b82525050565b5f6020820190506107605f83018461073e565b92915050565b6080516127f46107855f395f81816106de0152610bbc01526127f45ff3fe608060405234801561000f575f5ffd5b5060043610610135575f3560e01c8063715018a6116100b6578063b2becc211161007a578063b2becc211461034b578063b88d4fde14610369578063c87b56dd14610385578063e985e9c5146103b5578063f2fde38b146103e5578063f4fe1e2f1461040157610135565b8063715018a6146102b95780638ad2d5a7146102c35780638da5cb5b146102f357806395d89b4114610311578063a22cb4651461032f57610135565b806342842e0e116100fd57806342842e0e146101ef5780634c7b19961461020b5780634e1bcdbd146102295780636352211e1461025957806370a082311461028957610135565b806301ffc9a71461013957806306fdde0314610169578063081812fc14610187578063095ea7b3146101b757806323b872dd146101d3575b5f5ffd5b610153600480360381019061014e9190611d1c565b61041d565b6040516101609190611d61565b60405180910390f35b6101716104fe565b60405161017e9190611dea565b60405180910390f35b6101a1600480360381019061019c9190611e3d565b61058d565b6040516101ae9190611ea7565b60405180910390f35b6101d160048036038101906101cc9190611eea565b6105a8565b005b6101ed60048036038101906101e89190611f28565b6105be565b005b61020960048036038101906102049190611f28565b6106bd565b005b6102136106dc565b6040516102209190611fd3565b60405180910390f35b610243600480360381019061023e9190611e3d565b610700565b6040516102509190611d61565b60405180910390f35b610273600480360381019061026e9190611e3d565b61071d565b6040516102809190611ea7565b60405180910390f35b6102a3600480360381019061029e9190611fec565b61072e565b6040516102b09190612026565b60405180910390f35b6102c16107e4565b005b6102dd60048036038101906102d89190611e3d565b6107f7565b6040516102ea9190611ea7565b60405180910390f35b6102fb610833565b6040516103089190611ea7565b60405180910390f35b61031961085b565b6040516103269190611dea565b60405180910390f35b61034960048036038101906103449190612069565b6108eb565b005b610353610901565b604051610360919061214c565b60405180910390f35b610383600480360381019061037e9190612292565b610974565b005b61039f600480360381019061039a9190611e3d565b610999565b6040516103ac9190611dea565b60405180910390f35b6103cf60048036038101906103ca9190612312565b6109ff565b6040516103dc9190611d61565b60405180910390f35b6103ff60048036038101906103fa9190611fec565b610a8d565b005b61041b60048036038101906104169190612350565b610b11565b005b5f7f80ac58cd000000000000000000000000000000000000000000000000000000007bffffffffffffffffffffffffffffffffffffffffffffffffffffffff1916827bffffffffffffffffffffffffffffffffffffffffffffffffffffffff191614806104e757507f5b5e139f000000000000000000000000000000000000000000000000000000007bffffffffffffffffffffffffffffffffffffffffffffffffffffffff1916827bffffffffffffffffffffffffffffffffffffffffffffffffffffffff1916145b806104f757506104f682610d1f565b5b9050919050565b60605f805461050c906123cd565b80601f0160208091040260200160405190810160405280929190818152602001828054610538906123cd565b80156105835780601f1061055a57610100808354040283529160200191610583565b820191905f5260205f20905b81548152906001019060200180831161056657829003601f168201915b5050505050905090565b5f61059782610d88565b506105a182610e0e565b9050919050565b6105ba82826105b5610e47565b610e4e565b5050565b5f73ffffffffffffffffffffffffffffffffffffffff168273ffffffffffffffffffffffffffffffffffffffff160361062e575f6040517f64a0ae920000000000000000000000000000000000000000000000000000000081526004016106259190611ea7565b60405180910390fd5b5f610641838361063c610e47565b610e60565b90508373ffffffffffffffffffffffffffffffffffffffff168173ffffffffffffffffffffffffffffffffffffffff16146106b7578382826040517f64283d7b0000000000000000000000000000000000000000000000000000000081526004016106ae939291906123fd565b60405180910390fd5b50505050565b6106d783838360405180602001604052805f815250610974565b505050565b7f000000000000000000000000000000000000000000000000000000000000000081565b6008602052805f5260405f205f915054906101000a900460ff1681565b5f61072782610d88565b9050919050565b5f5f73ffffffffffffffffffffffffffffffffffffffff168273ffffffffffffffffffffffffffffffffffffffff160361079f575f6040517f89c62b640000000000000000000000000000000000000000000000000000000081526004016107969190611ea7565b60405180910390fd5b60035f8373ffffffffffffffffffffffffffffffffffffffff1673ffffffffffffffffffffffffffffffffffffffff1681526020019081526020015f20549050919050565b6107ec61106b565b6107f55f6110f2565b565b5f60085f8381526020019081526020015f205f9054906101000a900460ff16610822575f905061082e565b61082b8261071d565b90505b919050565b5f60065f9054906101000a900473ffffffffffffffffffffffffffffffffffffffff16905090565b60606001805461086a906123cd565b80601f0160208091040260200160405190810160405280929190818152602001828054610896906123cd565b80156108e15780601f106108b8576101008083540402835291602001916108e1565b820191905f5260205f20905b8154815290600101906020018083116108c457829003601f168201915b5050505050905090565b6108fd6108f6610e47565b83836111b5565b5050565b610909611c93565b610911611c93565b5f5f90505b600581101561096c5760085f8281526020019081526020015f205f9054906101000a900460ff168282601481106109505761094f612432565b5b6020020190151590811515815250508080600101915050610916565b508091505090565b61097f8484846105be565b61099361098a610e47565b8585858561138e565b50505050565b60606109a482610d88565b505f6109ae61153a565b90505f8151116109cc5760405180602001604052805f8152506109f7565b806109d6846115ca565b6040516020016109e7929190612499565b6040516020818303038152906040525b915050919050565b5f60055f8473ffffffffffffffffffffffffffffffffffffffff1673ffffffffffffffffffffffffffffffffffffffff1681526020019081526020015f205f8373ffffffffffffffffffffffffffffffffffffffff1673ffffffffffffffffffffffffffffffffffffffff1681526020019081526020015f205f9054906101000a900460ff16905092915050565b610a9561106b565b5f73ffffffffffffffffffffffffffffffffffffffff168173ffffffffffffffffffffffffffffffffffffffff1603610b05575f6040517f1e4fbdf7000000000000000000000000000000000000000000000000000000008152600401610afc9190611ea7565b60405180910390fd5b610b0e816110f2565b50565b610b1961106b565b60148210610b5c576040517f08c379a0000000000000000000000000000000000000000000000000000000008152600401610b5390612506565b60405180910390fd5b60085f8381526020019081526020015f205f9054906101000a900460ff1615610bba576040517f08c379a0000000000000000000000000000000000000000000000000000000008152600401610bb19061256e565b60405180910390fd5b7f000000000000000000000000000000000000000000000000000000000000000073ffffffffffffffffffffffffffffffffffffffff166323b872dd8430846040518463ffffffff1660e01b8152600401610c179392919061258c565b6020604051808303815f875af1158015610c33573d5f5f3e3d5ffd5b505050506040513d601f19601f82011682018060405250810190610c5791906125d5565b610c96576040517f08c379a0000000000000000000000000000000000000000000000000000000008152600401610c8d9061264a565b60405180910390fd5b600160085f8481526020019081526020015f205f6101000a81548160ff021916908315150217905550610cc98383611694565b818373ffffffffffffffffffffffffffffffffffffffff167f8dda74522e7fe21bb306fa8b33f1db60c423d24fe006f1274985cb26008574678484604051610d12929190612668565b60405180910390a3505050565b5f7f01ffc9a7000000000000000000000000000000000000000000000000000000007bffffffffffffffffffffffffffffffffffffffffffffffffffffffff1916827bffffffffffffffffffffffffffffffffffffffffffffffffffffffff1916149050919050565b5f5f610d93836116b1565b90505f73ffffffffffffffffffffffffffffffffffffffff168173ffffffffffffffffffffffffffffffffffffffff1603610e0557826040517f7e273289000000000000000000000000000000000000000000000000000000008152600401610dfc9190612026565b60405180910390fd5b80915050919050565b5f60045f8381526020019081526020015f205f9054906101000a900473ffffffffffffffffffffffffffffffffffffffff169050919050565b5f33905090565b610e5b83838360016116ea565b505050565b5f5f610e6b846116b1565b90505f73ffffffffffffffffffffffffffffffffffffffff168373ffffffffffffffffffffffffffffffffffffffff1614610eac57610eab8184866118a9565b5b5f73ffffffffffffffffffffffffffffffffffffffff168173ffffffffffffffffffffffffffffffffffffffff1614610f3757610eeb5f855f5f6116ea565b600160035f8373ffffffffffffffffffffffffffffffffffffffff1673ffffffffffffffffffffffffffffffffffffffff1681526020019081526020015f205f82825403925050819055505b5f73ffffffffffffffffffffffffffffffffffffffff168573ffffffffffffffffffffffffffffffffffffffff1614610fb657600160035f8773ffffffffffffffffffffffffffffffffffffffff1673ffffffffffffffffffffffffffffffffffffffff1681526020019081526020015f205f82825401925050819055505b8460025f8681526020019081526020015f205f6101000a81548173ffffffffffffffffffffffffffffffffffffffff021916908373ffffffffffffffffffffffffffffffffffffffff160217905550838573ffffffffffffffffffffffffffffffffffffffff168273ffffffffffffffffffffffffffffffffffffffff167fddf252ad1be2c89b69c2b068fc378daa952ba7f163c4a11628f55a4df523b3ef60405160405180910390a4809150509392505050565b611073610e47565b73ffffffffffffffffffffffffffffffffffffffff16611091610833565b73ffffffffffffffffffffffffffffffffffffffff16146110f0576110b4610e47565b6040517f118cdaa70000000000000000000000000000000000000000000000000000000081526004016110e79190611ea7565b60405180910390fd5b565b5f60065f9054906101000a900473ffffffffffffffffffffffffffffffffffffffff1690508160065f6101000a81548173ffffffffffffffffffffffffffffffffffffffff021916908373ffffffffffffffffffffffffffffffffffffffff1602179055508173ffffffffffffffffffffffffffffffffffffffff168173ffffffffffffffffffffffffffffffffffffffff167f8be0079c531659141344cd1fd0a4f28419497f9722a3daafe3b4186f6b6457e060405160405180910390a35050565b5f73ffffffffffffffffffffffffffffffffffffffff168373ffffffffffffffffffffffffffffffffffffffff1603611225575f6040517fa9fbf51f00000000000000000000000000000000000000000000000000000000815260040161121c9190611ea7565b60405180910390fd5b5f73ffffffffffffffffffffffffffffffffffffffff168273ffffffffffffffffffffffffffffffffffffffff160361129557816040517f5b08ba1800000000000000000000000000000000000000000000000000000000815260040161128c9190611ea7565b60405180910390fd5b8060055f8573ffffffffffffffffffffffffffffffffffffffff1673ffffffffffffffffffffffffffffffffffffffff1681526020019081526020015f205f8473ffffffffffffffffffffffffffffffffffffffff1673ffffffffffffffffffffffffffffffffffffffff1681526020019081526020015f205f6101000a81548160ff0219169083151502179055508173ffffffffffffffffffffffffffffffffffffffff168373ffffffffffffffffffffffffffffffffffffffff167f17307eab39ab6107e8899845ad3d59bd9653f200f220920489ca2b5937696c31836040516113819190611d61565b60405180910390a3505050565b5f8373ffffffffffffffffffffffffffffffffffffffff163b1115611533578273ffffffffffffffffffffffffffffffffffffffff1663150b7a02868685856040518563ffffffff1660e01b81526004016113ec94939291906126e1565b6020604051808303815f875af192505050801561142757506040513d601f19601f82011682018060405250810190611424919061273f565b60015b6114a8573d805f8114611455576040519150601f19603f3d011682016040523d82523d5f602084013e61145a565b606091505b505f8151036114a057836040517f64a0ae920000000000000000000000000000000000000000000000000000000081526004016114979190611ea7565b60405180910390fd5b805160208201fd5b63150b7a0260e01b7bffffffffffffffffffffffffffffffffffffffffffffffffffffffff1916817bffffffffffffffffffffffffffffffffffffffffffffffffffffffff19161461153157836040517f64a0ae920000000000000000000000000000000000000000000000000000000081526004016115289190611ea7565b60405180910390fd5b505b5050505050565b606060078054611549906123cd565b80601f0160208091040260200160405190810160405280929190818152602001828054611575906123cd565b80156115c05780601f10611597576101008083540402835291602001916115c0565b820191905f5260205f20905b8154815290600101906020018083116115a357829003601f168201915b5050505050905090565b60605f60016115d88461196c565b0190505f8167ffffffffffffffff8111156115f6576115f561216e565b5b6040519080825280601f01601f1916602001820160405280156116285781602001600182028036833780820191505090505b5090505f82602083010190505b600115611689578080600190039150507f3031323334353637383961626364656600000000000000000000000000000000600a86061a8153600a858161167e5761167d61276a565b5b0494505f8503611635575b819350505050919050565b6116ad828260405180602001604052805f815250611abd565b5050565b5f60025f8381526020019081526020015f205f9054906101000a900473ffffffffffffffffffffffffffffffffffffffff169050919050565b808061172257505f73ffffffffffffffffffffffffffffffffffffffff168273ffffffffffffffffffffffffffffffffffffffff1614155b15611854575f61173184610d88565b90505f73ffffffffffffffffffffffffffffffffffffffff168373ffffffffffffffffffffffffffffffffffffffff161415801561179b57508273ffffffffffffffffffffffffffffffffffffffff168173ffffffffffffffffffffffffffffffffffffffff1614155b80156117ae57506117ac81846109ff565b155b156117f057826040517fa9fbf51f0000000000000000000000000000000000000000000000000000000081526004016117e79190611ea7565b60405180910390fd5b811561185257838573ffffffffffffffffffffffffffffffffffffffff168273ffffffffffffffffffffffffffffffffffffffff167f8c5be1e5ebec7d5bd14f71427d1e84f3dd0314c0f7b2291e5b200ac8c7c3b92560405160405180910390a45b505b8360045f8581526020019081526020015f205f6101000a81548173ffffffffffffffffffffffffffffffffffffffff021916908373ffffffffffffffffffffffffffffffffffffffff16021790555050505050565b6118b4838383611ae0565b611967575f73ffffffffffffffffffffffffffffffffffffffff168373ffffffffffffffffffffffffffffffffffffffff160361192857806040517f7e27328900000000000000000000000000000000000000000000000000000000815260040161191f9190612026565b60405180910390fd5b81816040517f177e802f00000000000000000000000000000000000000000000000000000000815260040161195e929190612797565b60405180910390fd5b505050565b5f5f5f90507a184f03e93ff9f4daa797ed6e38ed64bf6a1f01000000000000000083106119c8577a184f03e93ff9f4daa797ed6e38ed64bf6a1f01000000000000000083816119be576119bd61276a565b5b0492506040810190505b6d04ee2d6d415b85acef81000000008310611a05576d04ee2d6d415b85acef810000000083816119fb576119fa61276a565b5b0492506020810190505b662386f26fc100008310611a3457662386f26fc100008381611a2a57611a2961276a565b5b0492506010810190505b6305f5e1008310611a5d576305f5e1008381611a5357611a5261276a565b5b0492506008810190505b6127108310611a82576127108381611a7857611a7761276a565b5b0492506004810190505b60648310611aa55760648381611a9b57611a9a61276a565b5b0492506002810190505b600a8310611ab4576001810190505b80915050919050565b611ac78383611ba0565b611adb611ad2610e47565b5f85858561138e565b505050565b5f5f73ffffffffffffffffffffffffffffffffffffffff168373ffffffffffffffffffffffffffffffffffffffff1614158015611b9757508273ffffffffffffffffffffffffffffffffffffffff168473ffffffffffffffffffffffffffffffffffffffff161480611b585750611b5784846109ff565b5b80611b9657508273ffffffffffffffffffffffffffffffffffffffff16611b7e83610e0e565b73ffffffffffffffffffffffffffffffffffffffff16145b5b90509392505050565b5f73ffffffffffffffffffffffffffffffffffffffff168273ffffffffffffffffffffffffffffffffffffffff1603611c10575f6040517f64a0ae92000000000000000000000000000000000000000000000000000000008152600401611c079190611ea7565b60405180910390fd5b5f611c1c83835f610e60565b90505f73ffffffffffffffffffffffffffffffffffffffff168173ffffffffffffffffffffffffffffffffffffffff1614611c8e575f6040517f73c6ac6e000000000000000000000000000000000000000000000000000000008152600401611c859190611ea7565b60405180910390fd5b505050565b604051806102800160405280601490602082028036833780820191505090505090565b5f604051905090565b5f5ffd5b5f5ffd5b5f7fffffffff0000000000000000000000000000000000000000000000000000000082169050919050565b611cfb81611cc7565b8114611d05575f5ffd5b50565b5f81359050611d1681611cf2565b92915050565b5f60208284031215611d3157611d30611cbf565b5b5f611d3e84828501611d08565b91505092915050565b5f8115159050919050565b611d5b81611d47565b82525050565b5f602082019050611d745f830184611d52565b92915050565b5f81519050919050565b5f82825260208201905092915050565b8281835e5f83830152505050565b5f601f19601f8301169050919050565b5f611dbc82611d7a565b611dc68185611d84565b9350611dd6818560208601611d94565b611ddf81611da2565b840191505092915050565b5f6020820190508181035f830152611e028184611db2565b905092915050565b5f819050919050565b611e1c81611e0a565b8114611e26575f5ffd5b50565b5f81359050611e3781611e13565b92915050565b5f60208284031215611e5257611e51611cbf565b5b5f611e5f84828501611e29565b91505092915050565b5f73ffffffffffffffffffffffffffffffffffffffff82169050919050565b5f611e9182611e68565b9050919050565b611ea181611e87565b82525050565b5f602082019050611eba5f830184611e98565b92915050565b611ec981611e87565b8114611ed3575f5ffd5b50565b5f81359050611ee481611ec0565b92915050565b5f5f60408385031215611f0057611eff611cbf565b5b5f611f0d85828601611ed6565b9250506020611f1e85828601611e29565b9150509250929050565b5f5f5f60608486031215611f3f57611f3e611cbf565b5b5f611f4c86828701611ed6565b9350506020611f5d86828701611ed6565b9250506040611f6e86828701611e29565b9150509250925092565b5f819050919050565b5f611f9b611f96611f9184611e68565b611f78565b611e68565b9050919050565b5f611fac82611f81565b9050919050565b5f611fbd82611fa2565b9050919050565b611fcd81611fb3565b82525050565b5f602082019050611fe65f830184611fc4565b92915050565b5f6020828403121561200157612000611cbf565b5b5f61200e84828501611ed6565b91505092915050565b61202081611e0a565b82525050565b5f6020820190506120395f830184612017565b92915050565b61204881611d47565b8114612052575f5ffd5b50565b5f813590506120638161203f565b92915050565b5f5f6040838503121561207f5761207e611cbf565b5b5f61208c85828601611ed6565b925050602061209d85828601612055565b9150509250929050565b5f60149050919050565b5f81905092915050565b5f819050919050565b6120cd81611d47565b82525050565b5f6120de83836120c4565b60208301905092915050565b5f602082019050919050565b6120ff816120a7565b61210981846120b1565b9250612114826120bb565b805f5b8381101561214457815161212b87826120d3565b9650612136836120ea565b925050600181019050612117565b505050505050565b5f610280820190506121605f8301846120f6565b92915050565b5f5ffd5b5f5ffd5b7f4e487b71000000000000000000000000000000000000000000000000000000005f52604160045260245ffd5b6121a482611da2565b810181811067ffffffffffffffff821117156121c3576121c261216e565b5b80604052505050565b5f6121d5611cb6565b90506121e1828261219b565b919050565b5f67ffffffffffffffff821115612200576121ff61216e565b5b61220982611da2565b9050602081019050919050565b828183375f83830152505050565b5f612236612231846121e6565b6121cc565b9050828152602081018484840111156122525761225161216a565b5b61225d848285612216565b509392505050565b5f82601f83011261227957612278612166565b5b8135612289848260208601612224565b91505092915050565b5f5f5f5f608085870312156122aa576122a9611cbf565b5b5f6122b787828801611ed6565b94505060206122c887828801611ed6565b93505060406122d987828801611e29565b925050606085013567ffffffffffffffff8111156122fa576122f9611cc3565b5b61230687828801612265565b91505092959194509250565b5f5f6040838503121561232857612327611cbf565b5b5f61233585828601611ed6565b925050602061234685828601611ed6565b9150509250929050565b5f5f5f6060848603121561236757612366611cbf565b5b5f61237486828701611ed6565b935050602061238586828701611e29565b925050604061239686828701611e29565b9150509250925092565b7f4e487b71000000000000000000000000000000000000000000000000000000005f52602260045260245ffd5b5f60028204905060018216806123e457607f821691505b6020821081036123f7576123f66123a0565b5b50919050565b5f6060820190506124105f830186611e98565b61241d6020830185612017565b61242a6040830184611e98565b949350505050565b7f4e487b71000000000000000000000000000000000000000000000000000000005f52603260045260245ffd5b5f81905092915050565b5f61247382611d7a565b61247d818561245f565b935061248d818560208601611d94565b80840191505092915050565b5f6124a48285612469565b91506124b08284612469565b91508190509392505050565b7f4f7574206f662072616e676500000000000000000000000000000000000000005f82015250565b5f6124f0600c83611d84565b91506124fb826124bc565b602082019050919050565b5f6020820190508181035f83015261251d816124e4565b9050919050565b7f416c726561647920736f6c6400000000000000000000000000000000000000005f82015250565b5f612558600c83611d84565b915061256382612524565b602082019050919050565b5f6020820190508181035f8301526125858161254c565b9050919050565b5f60608201905061259f5f830186611e98565b6125ac6020830185611e98565b6125b96040830184612017565b949350505050565b5f815190506125cf8161203f565b92915050565b5f602082840312156125ea576125e9611cbf565b5b5f6125f7848285016125c1565b91505092915050565b7f546f6b656e207472616e73666572206661696c656400000000000000000000005f82015250565b5f612634601583611d84565b915061263f82612600565b602082019050919050565b5f6020820190508181035f83015261266181612628565b9050919050565b5f60408201905061267b5f830185612017565b6126886020830184612017565b9392505050565b5f81519050919050565b5f82825260208201905092915050565b5f6126b38261268f565b6126bd8185612699565b93506126cd818560208601611d94565b6126d681611da2565b840191505092915050565b5f6080820190506126f45f830187611e98565b6127016020830186611e98565b61270e6040830185612017565b818103606083015261272081846126a9565b905095945050505050565b5f8151905061273981611cf2565b92915050565b5f6020828403121561275457612753611cbf565b5b5f6127618482850161272b565b91505092915050565b7f4e487b71000000000000000000000000000000000000000000000000000000005f52601260045260245ffd5b5f6040820190506127aa5f830185611e98565b6127b76020830184612017565b939250505056fea264697066735822122028aab0235ed0be538f64a5709ec07673c52eda173e780ffe4887ec8eb1047a5264736f6c63430008210033",
    "linkReferences": {}
  },
  "methodIdentifiers": {
    "approve(address,uint256)": "095ea7b3",
    "balanceOf(address)": "70a08231",
    "buyNftForUser(address,uint256,uint256)": "f4fe1e2f",
    "getApproved(uint256)": "081812fc",
    "getInventoryStatus()": "b2becc21",
    "getNftOwner(uint256)": "8ad2d5a7",
    "i_hsToken()": "4c7b1996",
    "isApprovedForAll(address,address)": "e985e9c5",
    "name()": "06fdde03",
    "owner()": "8da5cb5b",
    "ownerOf(uint256)": "6352211e",
    "renounceOwnership()": "715018a6",
    "s_isSold(uint256)": "4e1bcdbd",
    "safeTransferFrom(address,address,uint256)": "42842e0e",
    "safeTransferFrom(address,address,uint256,bytes)": "b88d4fde",
    "setApprovalForAll(address,bool)": "a22cb465",
    "supportsInterface(bytes4)": "01ffc9a7",
    "symbol()": "95d89b41",
    "tokenURI(uint256)": "c87b56dd",
    "transferFrom(address,address,uint256)": "23b872dd",
    "transferOwnership(address)": "f2fde38b"
  },
  "id": 40
}